:10000300EF24FC601114601714601D14602324078F
:10001300702753A01F22E5A0541F4480F5A022E5BA
:10002300A0541F44A0F5A022E5A0541F44C0F5A08E
:0A00330022E5A0541F44E0F5A022CE
:10006300E4FF1200037580FF7F04120003E4FF1214
:0F0073000003E4F5807F05120003E4FF020003A1
:0E00820000007F177ECD7D78DDFEDEFCDFFA0C
:01009000224D
:10003D007F04120003E4FCECC39408748094805098
:10004D0014A8047401088002C333D8FCF4F580129F
:05005D0000820C80E2AE
:01006200227B
:08009D0012006312003D80FB1C
:030000000200916A
:0C009100787FE4F6D8FD75810702009D21
:00000001FF
