:10024E000810010203040506070808080101010150
:04025E000101010099
:10021200E51C701A751C011201148F1DE51B651D6A
:0F022200FF551DF51AE51DF45FF51F851D1B2205
:0C02A200E51945187005F51875190122C2
:0100030022DA
:10026900538E7F5389F0758A18758CFCC28DD28C98
:05027900D2A9D2AF2262
:03000B0002009A56
:10009A00C0E0C0F0C083C082C0D075D000C000C02C
:1000AA0001C002C003C004C005C006C007051CE5A4
:1000BA001C640A7002F51C0519E51970020518FF7F
:1000CA00AE18BE0109BFF406751800751900051EA1
:1000DA00E51E64087002F51E7410251EF8E6FD7C04
:1000EA00007408251EF8E6FB7A00AF1E120187D0BD
:1000FA0007D006D005D004D003D002D001D000D05A
:0A010A00D0D082D083D0F0D0E032D4
:100291001202311202691202121202A2120003802A
:0102A100F567
:100231007580FFE5A0541F4480F5A053A01FE4F58D
:0D02410080E5A0541F44A0F5A053A01F228B
:060262000120000121FF54
:1001D700ED4C600FA8077401088002C333D8FC42B6
:1001E70020800EA8077401088002C333D8FCF4529C
:1001F70020E52065216013E520F4F580E5A0541F74
:0A0207004480F5A053A01F852021BC
:0102110022CA
:10011400E4FFC2C4D2C2D2B5D2B420B3027F042059
:10012400B2027F0520B1027F0620B0027F07D2C44D
:10013400C2C2D2B5D2B420B3027F0820B2027F0972
:1001440020B1027F0A20B0027F0BD2C4D2C2C2B552
:10015400D2B420B3027F0C20B2027F0D20B1027F03
:100164000E20B0027F0FD2C4D2C2D2B5C2B420B323
:10017400027F1020B2027F1120B1027F1220B00250
:020184007F13E7
:010186002256
:10027E00C0F9A4B0999282F88090FF010204081090
:03028E002040808D
:100187007580FFE5A0541F44E0F5A053A01FEF9032
:10019700028993F580E5A0541F44C0F5A053A01F22
:1001A700EB4A6012747E2DF58274023CF583E4936A
:1001B700547FF580800E747E2DF58274023CF583A2
:1001C700E493F580E5A0541F44E0F5A053A01F2257
:0300000002000EED
:0C000E00787FE4F6D8FD758121020055D2
:10001A00020291E493A3F8E493A34003F68001F269
:10002A0008DFF48029E493A3F85407240CC8C333E7
:10003A00C4540F4420C8834004F456800146F6DFB6
:10004A00E4800B010204081020408090024EE47EF6
:10005A00019360BCA3FF543F30E509541FFEE493AB
:10006A00A360010ECF54C025E060A840B8E493A372
:10007A00FAE493A3F8E493A3C8C582C8CAC583CA9D
:10008A00F0A3C8C582C8CAC583CADFE9DEE780BE55
:010268000095
:00000001FF
