:03000000020003F8
:0C000300787FE4F6D8FD7581070200B993
:100016007F607EEA1200287F607EEA1200287F60F9
:020026007EEA70
:10002800EF1FAC0670011E4C70F6EF1FAC06700196
:100038001E4C70F6EF1FAC0670011E4C70F6EF1FD9
:09004800AC0670011E4C70F6229A
:10005100EF24FB601314601914601F24037023E55F
:10006100A0541F4480F5A022E5A0541F44A0F5A090
:1000710022E5A0541F44C0F5A022E5A0541F44E08E
:03008100F5A022C5
:1000A6007F04120051C280120024D2807F607EEA53
:0300B6000200281D
:0700C100D28AD2AAD2AF22BD
:0300130002008464
:10008400C0E0C0D075D000C004C006C007C287124B
:100094000016120016D287D007D006D004D0D0D0D4
:0200A400E03248
:0800B9001200C11200A680FB39
:00000001FF
