:1002450008100A0A0A0A0A0A0A0A08080000000031
:0402550000000000A5
:10018400E51B703F751B01FF12009A8F1CE51C656F
:100194001AFF551CF519E51CF45FF51E851C1AE5BC
:1001A40019602075F00A8485F017E51975F00A8442
:1001B40075F00A8485F016E5195401FD7C00E4FF0E
:0401C40012020A22F7
:08000300E518700375180122D5
:0102BA002221
:10029400538E7F5389F0758A18758CFCC28DD28C6D
:0502A400D2A9D2AF2237
:03000B00020112DD
:10011200C0E0C0F0C083C082C0D075D000C000C0B3
:1001220001C002C003C004C005C006C007051BE52C
:100132001B640A7002F51B0518AF187E00BE01068B
:10014200BFF403751B00051DE51D64087002F51D53
:100152007410251DF8E6FD7C007408251DF8E6FBE9
:100162007A00AF1D1201C8D007D006D005D004D046
:1001720003D002D001D000D0D0D082D083D0F0D032
:02018200E03269
:1002A9001202771202941201841200031202BA8018
:0102B900F54F
:100277007580FFE5A0541F4480F5A053A01FE4F547
:0D02870080E5A0541F44A0F5A053A01F2245
:10009A00E4FEC2C4D2C2D2B5D2B420B3027E0420D6
:1000AA00B2027E0520B1027E0620B0027E07EF6012
:1000BA0054D2C4C2C2D2B5D2B420B3027E0820B28E
:1000CA00027E0920B1027E0A20B0027E0BD2C4D27F
:1000DA00C2C2B5D2B420B3027E0C20B2027E0D2079
:1000EA00B1027E0E20B0027E0FD2C4D2C2D2B5C2F5
:1000FA00B420B3027E1020B2027E1120B1027E1219
:07010A0020B0027E13AF06D6
:0101110022CB
:060259000132000133FF39
:10020A00ED4C600FA8077401088002C333D8FC4282
:10021A0032800EA8077401088002C333D8FCF45256
:10022A0032E53265336013E532F4F580E5A0541FF8
:0A023A004480F5A053A01F85323365
:010244002297
:10025F00081F01020408102040800B27C0F9A4B02A
:07026F00999282F88090FFD4
:1001C800E4F580E5A0541F44E0F5A053A01F741F78
:1001D8002FF8E6F580E5A0541F44C0F5A053A01FF2
:1001E800EB4A600A74272DF8E6547FFF80067427CF
:1001F8002DF8E6FF8F80E5A0541F44E0F5A053A03A
:020208001F22B3
:0300000002000EED
:0C000E00787FE4F6D8FD758133020055C0
:10001A000202A9E493A3F8E493A34003F68001F251
:10002A0008DFF48029E493A3F85407240CC8C333E7
:10003A00C4540F4420C8834004F456800146F6DFB6
:10004A00E4800B0102040810204080900245E47EFF
:10005A00019360BCA3FF543F30E509541FFEE493AB
:10006A00A360010ECF54C025E060A840B8E493A372
:10007A00FAE493A3F8E493A3C8C582C8CAC583CA9D
:10008A00F0A3C8C582C8CAC583CADFE9DEE780BE55
:010276000087
:00000001FF
