:0300000002009F5C
:0C009F00787FE4F6D8FD75810702009020
:10004700EE702AEF24FB6011146015146019240365
:10005700701BD2A7C2A6C2A522D2A7C2A6D2A5222A
:0E006700D2A7D2A6C2A522D2A7D2A6D2A52287
:06007500F5807F607EEAC9
:10007B00EF1FAC0670011E4C70F6EF1FAC06700143
:05008B001E4C70F6227E
:10000300D2A7C2A6C2A57D01EDD3940874809480C3
:100013005012A80574FF088002C333D8FC12007580
:100023000D0D80E47D01EDD394087480948050130A
:10003300A80574FF088002C333D8FCF41200750DC1
:030043000D80E34A
:010046002297
:0F0090007F057E00120047E4F58012000380FB1D
:00000001FF
