:0300000002000EED
:0C000E00787FE4F6D8FD758108020055EB
:03000300010800F1
:10009A00EF24FB601314601914601F24037023E516
:1000AA00A0541F4480F5A022E5A0541F44A0F5A047
:1000BA0022E5A0541F44C0F5A022E5A0541F44E045
:0300CA00F5A0227C
:1000F800758901758C3C758AAFD2A9D2AFD28C2292
:03000B000200CD23
:1000CD00C0E0C0F0C0D0758C3C758AAF0508E5085E
:1000DD0075F00A84E5F07002B280E508646470047E
:0B00ED00B287F508D0D0D0F0D0E03290
:0A0108007F0412009A1200F880FE36
:10001A00020108E493A3F8E493A34003F68001F2F3
:10002A0008DFF48029E493A3F85407240CC8C333E7
:10003A00C4540F4420C8834004F456800146F6DFB6
:10004A00E4800B0102040810204080900003E47E43
:10005A00019360BCA3FF543F30E509541FFEE493AB
:10006A00A360010ECF54C025E060A840B8E493A372
:10007A00FAE493A3F8E493A3C8C582C8CAC583CA9D
:10008A00F0A3C8C582C8CAC583CADFE9DEE780BE55
:0100060000F9
:00000001FF
