:030000000200A358
:0C00A300787FE4F6D8FD7581080200EAC1
:0301730001080080
:10012F00EF24FB601314601914601F24037023E580
:10013F00A0541F4480F5A022E5A0541F44A0F5A0B1
:10014F0022E5A0541F44C0F5A022E5A0541F44E0AF
:03015F00F5A022E6
:07016C00AE071FEE70FA223E
:1000030020B0237F6412016C20B01BAF087E00EF89
:100013007007C280750801800AEF64014E7004D234
:1000230080F50830B0FD20B1237F6412016C20B14C
:100033001BAF087E00EF7007C281750802800AEFCC
:1000430064024E7004D281F50830B1FD20B2277FDF
:100053006412016C20B21FAF087E00EF64017009C7
:10006300C28230B2FDD282800DEF64024E7007C2AD
:100073008430B2FDD28420B3267F6412016C20B396
:100083001EAF087E00EF64017008C28330B3FDD257
:100093008322EF64024E7007C28530B3FDD28522FE
:0A0162007F0412012F12000380FB3E
:1000AF00020162E493A3F8E493A34003F68001F204
:1000BF0008DFF48029E493A3F85407240CC8C33352
:1000CF00C4540F4420C8834004F456800146F6DF21
:1000DF00E4800B0102040810204080900173E47E3D
:1000EF00019360BCA3FF543F30E509541FFEE49316
:1000FF00A360010ECF54C025E060A840B8E493A3DD
:10010F00FAE493A3F8E493A3C8C582C8CAC583CA07
:10011F00F0A3C8C582C8CAC583CADFE9DEE780BEBF
:010176000088
:00000001FF
