:030000000200AB50
:0C00AB00787FE4F6D8FD7581080200B7EC
:10009900C0F9A4B0999282F880908883C6A1868E0F
:0200A900BF7F17
:040080007F607EEA35
:10008400EF1FAC0670011E4C70F6EF1FAC0670013A
:050094001E4C70F62275
:10000300EF24FB601314601914601F24037023E5AD
:10001300A0541F4480F5A022E5A0541F44A0F5A0DE
:1000230022E5A0541F44C0F5A022E5A0541F44E0DC
:03003300F5A02213
:0600C6001200038D8022F0
:10006200AE077F06120003AF05A8077401088002DD
:0E007200C333D8FCF5807F071200038E802276
:10003600E4FDEDD3940F74809480501F7F06120068
:10004600037580FF0F120003ED90009993F580125F
:0B00560000801200801200800D80D797
:01006100227C
:0700BF00E4FD7F050200C60D
:0800B7001200BF12003680FBAD
:00000001FF
