:0300000002000EED
:0C000E00787FE4F6D8FD75810A020055E9
:1001C500C0F9A4B0999282F880908883C6A1868EE2
:0201D500BF7FEA
:0901F300010800010900010A00E5
:1000E300EF24FC601114601714601D1460232407AF
:1000F300702753A01F22E5A0541F4480F5A022E5DA
:10010300A0541F44A0F5A022E5A0541F44C0F5A0AD
:0A01130022E5A0541F44E0F5A022ED
:1001A000AE077F071200E3E4F5801F1200E3AF05FE
:1001B000A8077401088002C333D8FCF5807F0712BA
:0501C00000E38E802227
:10014D0075F00A8493FF1D1201A07FF47E01120148
:0F015D006C9001D5E41D93FF1201A07FF47E0189
:0B016C00EF1FAC0670011E4C70F62265
:10009A00E50A75F00A84E5F09001C57D071201634F
:1000AA00E50A12014DE50975F00A84E5F09001C5EB
:1000BA00120162E50912014DE50875F00A84E5F0BE
:1000CA009001C5120162E50875F00A8493FF1D12BA
:0900DA0001A07FF47E0102016C1B
:0E01D700758901758C3C758AAFD2A9D2AF2212
:03000B0002017778
:10017700C0E0758C3C758AAF050AE50A64147016F1
:100187000509F50AE509643C70040508F509E50861
:0901970064637002F508D0E03247
:07000300AE071FEE70FA22A8
:10011D0020B3127F6412000320B30AB28C20B30502
:10012D0012009A80F820B2177F6412000320B20FDC
:10013D00E4F508F509F50A20B20512009A80F822B7
:0901FD007F041200E37580FF226B
:0E01E5001201FD1201D712009A12011D80F8BE
:10001A000201E5E493A3F8E493A34003F68001F216
:10002A0008DFF48029E493A3F85407240CC8C333E7
:10003A00C4540F4420C8834004F456800146F6DFB6
:10004A00E4800B01020408102040809001F3E47E52
:10005A00019360BCA3FF543F30E509541FFEE493AB
:10006A00A360010ECF54C025E060A840B8E493A372
:10007A00FAE493A3F8E493A3C8C582C8CAC583CA9D
:10008A00F0A3C8C582C8CAC583CADFE9DEE780BE55
:0101FC000002
:00000001FF
