:0300000002000EED
:0C000E00787FE4F6D8FD75810A020055E9
:09015900010900010800010A007F
:1000DA00EF24FB601314601914601F24037023E5D6
:1000EA00A0541F4480F5A022E5A0541F44A0F5A007
:1000FA0022E5A0541F44C0F5A022E5A0541F44E005
:03010A00F5A0223B
:0E014000758901758CFF758A9BD2A9D2AF22FA
:03000B0002010DE2
:10010D00C0E0C0D0758CFF758A9B0509E509B5085F
:10011D0004D280800AE50964647004C280F509D0B8
:04012D00D0D0E0321C
:0B014E00EF1FAC0670011E4C70F62283
:10009A0020B03C7FF47E0112014E20B03230B0FD18
:1000AA00E50A14601514601914601D24037020C237
:1000BA0080D28C75080A750A0122750832750A02FF
:1000CA002275085A750A0322D280C28CE4F50A22E4
:0F0131007F041200DAD28012014012009A80FB84
:10001A00020131E493A3F8E493A34003F68001F2CA
:10002A0008DFF48029E493A3F85407240CC8C333E7
:10003A00C4540F4420C8834004F456800146F6DFB6
:10004A00E4800B0102040810204080900159E47EEC
:10005A00019360BCA3FF543F30E509541FFEE493AB
:10006A00A360010ECF54C025E060A840B8E493A372
:10007A00FAE493A3F8E493A3C8C582C8CAC583CA9D
:10008A00F0A3C8C582C8CAC583CADFE9DEE780BE55
:01016200009C
:00000001FF
