:030000000200B348
:0C00B300787FE4F6D8FD7581070200C7D5
:10005700EE7032EF24FB601314601914601F240341
:100067007023E5A0541F4480F5A022E5A0541F4447
:10007700A0F5A022E5A0541F44C0F5A022E5A05496
:060087001F44E0F5A02279
:0800BF007E001200578D802223
:10008D00FD7F041200BF7F607EEA12009E7F607EBE
:01009D00EA78
:10009E00EF1FAC0670011E4C70F6EF1FAC06700120
:0500AE001E4C70F6225B
:10000300E4FBEBC3940374809480500CE412008DE2
:100013007DFF12008E0B80EA7B01EBD39408748082
:1000230094805011A80374FF088002C333D8FC12D4
:10003300008D0B80E57B01EBD39408748094805092
:1000430012A80374FF088002C333D8FCF412008D96
:030053000B80E43B
:010056002287
:0700CF00E4FD7F050200BF04
:0800C7001200CF12000380FBC0
:00000001FF
