:0A028800081C0A0A0A0A0A0A0A0AF8
:10034900538E7F5389F0758A18758CFCC28DD28CB7
:05035900D2A9D2AF2281
:03000B00020112DD
:10011200C0E0C0F0C083C082C0D075D000C000C0B3
:1001220001C002C003C004C005C006C0070524E523
:100132002464087002F524741C2524F8E6FD7C0072
:10014200E4FBFAAF24120165D007D006D005D00433
:10015200D003D002D001D000D0D0D082D083D0F052
:03016200D0E032B8
:1001A7001202FA120349E4F51BAF1B1202588F25FE
:1001B700EF2401FDE433FCAF1B1202D6E52575F0F1
:1001C700648475F00A8485F021E52575F00A847545
:1001D700F00A8485F022E52575F00A8485F02380EE
:0101E700FE19
:1002FA007580FFE5A0541F4480F5A053A01FE4F5C4
:0D030A0080E5A0541F44A0F5A053A01F22C1
:10009A00E4FEC2C4D2C2D2B5D2B420B3027E0420D6
:1000AA00B2027E0520B1027E0620B0027E07EF6012
:1000BA0054D2C4C2C2D2B5D2B420B3027E0820B28E
:1000CA00027E0920B1027E0A20B0027E0BD2C4D27F
:1000DA00C2C2B5D2B420B3027E0C20B2027E0D2079
:1000EA00B1027E0E20B0027E0FD2C4D2C2D2B5C2F5
:1000FA00B420B3027E1020B2027E1120B1027E1219
:07010A0020B0027E13AF06D6
:0101110022CB
:06029200012900012AFF12
:1001E800ED4C600FA8077401088002C333D8FC42A5
:1001F80029800EA8077401088002C333D8FCF45282
:1002080029E529652A6013E529F4F580E5A0541F3E
:0A0218004480F5A053A01F85292A99
:0102220022B9
:10029800080801020408102040800B10C0F9A4B01F
:0702A800999282F88090FF9B
:10016500E4F580E5A0541F44E0F5A053A01F7408F2
:100175002FF8E6F580E5A0541F44C0F5A053A01F55
:10018500EB4A600A74102DF8E6547FFF8006741060
:100195002DF8E6FF8F80E5A0541F44E0F5A053A09D
:0201A5001F2217
:04031700D2A07F05EC
:10031B00000000000000000000000000000000AE24
:06032B00071FEE70EB223B
:0F037000D2A1120317C2A17F0512031BC2A02244
:0C037F00C2A1120317D2A17F0502031BCC
:02022300AD0725
:10022500E4FCECC39408748094805024C2A07F053C
:1002350012031BED30E704D2A18002C2A17F051293
:10024500031BD2A0ED25E0FD7F0512031B0C80D218
:02025500C2A045
:010257002284
:1002B000E4FCECC39408748094805017120317ED8B
:1002C00025E0FD30A103430501C2A07F0512031BF9
:0502D0000C80DFAF050A
:0102D5002206
:10035E00120317A2A1E433FDC2A07F0512031BAF47
:01036E000589
:01036F00226B
:10033100C2A0EF24FF92A17F0512031B120317C273
:08034100A0D2A17F0502031BFD
:1002D6008F268C278D281203707FA012022312030B
:1002E6005EAF2612022312035EAF28120223120308
:0402F6005E02037F22
:020258008F26EF
:10025A001203707FA012022312035EAF261202233A
:10026A0012035E1203707FA112022312035E1202AE
:0D027A00B08F277F0112033112037FAF27E1
:010287002254
:0300000002000EED
:0C000E00787FE4F6D8FD75812A020055C9
:10001A000201A7E493A3F8E493A34003F68001F254
:10002A0008DFF48029E493A3F85407240CC8C333E7
:10003A00C4540F4420C8834004F456800146F6DFB6
:10004A00E4800B0102040810204080900288E47EBC
:10005A00019360BCA3FF543F30E509541FFEE493AB
:10006A00A360010ECF54C025E060A840B8E493A372
:10007A00FAE493A3F8E493A3C8C582C8CAC583CA9D
:10008A00F0A3C8C582C8CAC583CADFE9DEE780BE55
:0102AF00004E
:00000001FF
