:0300000002000EED
:0C000E00787FE4F6D8FD75810A020055E9
:1001B700C0F9A4B0999282F880908883C6A1868EF0
:0201C700BF7FF8
:0901E700010800010900010A00F1
:1000E300EF24FB601314601914601F24037023E5CD
:1000F300A0541F4480F5A022E5A0541F44A0F5A0FE
:1001030022E5A0541F44C0F5A022E5A0541F44E0FB
:03011300F5A02232
:10019900AE077F061200E3AF05A8077401088002C5
:0E01A900C333D8FCF5807F071200E38E80225E
:1001460075F00A8493FF1D1201997FF47E01120156
:0F015600659001C7E41D93FF1201997FF47E01AC
:0B016500EF1FAC0670011E4C70F6226C
:10009A00E50A75F00A84E5F09001B77D0712015C64
:1000AA00E50A120146E50975F00A84E5F09001B700
:1000BA0012015BE509120146E50875F00A84E5F0CC
:1000CA009001B712015BE50875F00A8493FF1D12CF
:0900DA0001997FF47E0102016529
:1001C900758901758C3C758AAFD2A9D2AFD28C22C0
:03000B000201707F
:10017000C0E0758C3C758AAF050AE50A64147016F8
:100180000509F50AE509643C70040508F509E50868
:0901900064637002F508D0E0324E
:07000300AE071FEE70FA22A8
:1001160020B3127F6412000320B30AB28C20B30509
:1001260012009A80F820B2177F6412000320B20FE3
:10013600E4F508F509F50A20B20512009A80F822BE
:0901F1007F041200E37580FF2277
:0E01D9001201F11201C912009A12011680F8EB
:10001A000201D9E493A3F8E493A34003F68001F222
:10002A0008DFF48029E493A3F85407240CC8C333E7
:10003A00C4540F4420C8834004F456800146F6DFB6
:10004A00E4800B01020408102040809001E7E47E5E
:10005A00019360BCA3FF543F30E509541FFEE493AB
:10006A00A360010ECF54C025E060A840B8E493A372
:10007A00FAE493A3F8E493A3C8C582C8CAC583CA9D
:10008A00F0A3C8C582C8CAC583CADFE9DEE780BE55
:0101F000000E
:00000001FF
