:100143000B09C0F9A4B0999282F88090FF010800CE
:100118008F148D158B168522178524188526198529
:06012800281A852A1B22A3
:10009A0053A01F7580FFE5A0541F44C0F5A0AF0808
:1000AA00A8077401088002C333D8FCF580E5A05480
:1000BA001F44E0F5A074142508F8E6F580E5080465
:0400CA005407F508DA
:0100CE00220F
:03000B00020101EE
:10010100C0E0C0D075D000C000C00712009AD0076F
:07011100D000D0D0D0E03295
:10012E00438E805389F0758A40758CA2C28DD28C15
:05013E00D2A9D2AF229E
:1000CF0012012EE510FD7C00E50FFB7A0075210073
:1000DF00850E22752300850D24752500850C267548
:1000EF002700850B28752900850A2AAF11120118E0
:0200FF0080FE81
:0300000002000EED
:0C000E00787FE4F6D8FD75812A020055C9
:10001A000200CFE493A3F8E493A34003F68001F22D
:10002A0008DFF48029E493A3F85407240CC8C333E7
:10003A00C4540F4420C8834004F456800146F6DFB6
:10004A00E4800B0102040810204080900143E47E02
:10005A00019360BCA3FF543F30E509541FFEE493AB
:10006A00A360010ECF54C025E060A840B8E493A372
:10007A00FAE493A3F8E493A3C8C582C8CAC583CA9D
:10008A00F0A3C8C582C8CAC583CADFE9DEE780BE55
:0101530000AB
:00000001FF
