:10029300EF24FC601114601714601D1460232407FD
:1002A300702753A01F22E5A0541F4480F5A022E528
:1002B300A0541F44A0F5A022E5A0541F44C0F5A0FC
:0A02C30022E5A0541F44E0F5A0223C
:100320007F041202937580FFE4FF1202937F05128F
:090330000293E4F580FF02029340
:06030500012900012AFF9E
:1002CD00ED4C600FA8077401088002C333D8FC42BF
:1002DD0029800EA8077401088002C333D8FCF4529C
:1002ED0029E529652A60108529807F04120293E48F
:0702FD00FF12029385292A7C
:0103040022D6
:1001BE00E4FEC2C4D2C2D2B5D2B420B3027E0420B1
:1001CE00B2027E0520B1027E0620B0027E07EF60ED
:1001DE0054D2C4C2C2D2B5D2B420B3027E0820B269
:1001EE00027E0920B1027E0A20B0027E0BD2C4D25A
:1001FE00C2C2B5D2B420B3027E0C20B2027E0D2054
:10020E00B1027E0E20B0027E0FD2C4D2C2D2B5C2CF
:10021E00B420B3027E1020B2027E1120B1027E12F3
:07022E0020B0027E13AF06B1
:0102350022A6
:10034E000102040810204080C0F9A4B0999282F8EE
:04035E008090FFBFCD
:100236008F248C258D268A278B28E4F5807F07124C
:100246000293E4FF120293E52490034E93F5807F18
:1002560006120293E4FF120293E528452760137401
:10026600562526F58274033525F583E493547FFFDE
:10027600800F74562526F58274033525F583E4939D
:0D028600FF8F807F07120293E4FF020293B6
:10030B0008100A0A0A0A0A0A0A0A0808000000006A
:04031B0000000000DE
:10013800E51C60030201BD751C017F011201BE8F21
:100148001DE51D651BFF551DF519E51DF45FF5201F
:10015800851D1BE51924FB600804701163210180CB
:100168000CE5217008F522F51AF523F51FE51F7532
:10017800F00A8475F00A8485F010E51F75F00A848A
:1001880085F01175120BE52375F00A8475F00A8461
:1001980085F013E52375F00A8485F01475150BE5D1
:1001A8001A75F00A8475F00A8485F016E51A75F058
:0601B8000A8485F0172205
:08000300E518700375180122D5
:010373002267
:10033900438E805389F0758A20758CD1C28DD28CF9
:05034900D2A9D2AF2291
:03000B0002000EE2
:10000E00C0E0C0F0C083C082C0D075D000C000C0B8
:10001E0001C002C003C004C005C006C007051CE530
:10002E001C640A7002F51C0518AF187E00BE01068E
:10003E00BFF403751800051EE51E64087002F51E58
:10004E007410251EF8E6FD7C007408251EF8E6FBEC
:10005E007A00AF1E120236E52160280522E52264E1
:10006E00327020F522051AE51A64147016F51A0579
:10007E0023E523643C700CF523051FE51F643C70DB
:10008E0002F51FD007D006D005D004D003D002D081
:0E009E0001D000D0D0D082D083D0F0D0E0329C
:1003620012032012033912013812000312037380A0
:01037200F595
:030000000200AC4F
:0C00AC00787FE4F6D8FD75812A0200F38D
:1000B800020362E493A3F8E493A34003F68001F2F9
:1000C80008DFF48029E493A3F85407240CC8C33349
:1000D800C4540F4420C8834004F456800146F6DF18
:1000E800E4800B0102040810204080900305E47EA0
:1000F800019360BCA3FF543F30E509541FFEE4930D
:10010800A360010ECF54C025E060A840B8E493A3D3
:10011800FAE493A3F8E493A3C8C582C8CAC583CAFE
:10012800F0A3C8C582C8CAC583CADFE9DEE780BEB6
:01031F0000DD
:00000001FF
