:03000000020003F8
:0C000300787FE4F6D8FD75810802004A01
:10016F00C0F9A4B0999282F880908883C6A1868E38
:02017F00BF7F40
:0301A20001080150
:1000EC00EF24FB601314601914601F24037023E5C4
:1000FC00A0541F4480F5A022E5A0541F44A0F5A0F5
:10010C0022E5A0541F44C0F5A022E5A0541F44E0F2
:03011C00F5A02229
:06019C001200EC8D802230
:10013D00AE05AC07AF06A8077401088002C333D81B
:0D014D00FCFD7F0612019CAD040F02019C19
:0A015A00E493FF12013D7FF47E01E3
:0B016400EF1FAC0670011E4C70F6226D
:10008F00900171E493FFE4FD12015D90016F7D011A
:10009F0012015A9001717D0212015AA3E493FF7D60
:1000AF000312015D90017FE493FF7D0412015DE473
:1000BF0093FF7D0512015DE50875F00A8490016FCD
:1000CF0093FF7D0612015DE50875F00A84E5F09354
:0D00DF00FF7D0712013D7FF47E01020164E8
:0E018100AB07AF031BEF600512008F80F52265
:0D018F007DFF7F0412019CE4FD0F02019C26
:10011F0012018F12008F0508E50875F00D8485F028
:0E012F0008E508700205087F6412018180E572
:10000F0002011FE493A3F8E493A34003F68001F2E7
:10001F0008DFF48029E493A3F85407240CC8C333F2
:10002F00C4540F4420C8834004F456800146F6DFC1
:10003F00E4800B01020408102040809001A2E47EAE
:10004F00019360BCA3FF543F30E509541FFEE493B6
:10005F00A360010ECF54C025E060A840B8E493A37D
:10006F00FAE493A3F8E493A3C8C582C8CAC583CAA8
:10007F00F0A3C8C582C8CAC583CADFE9DEE780BE60
:0101A5000059
:00000001FF
