:030000000200B348
:0C00B300787FE4F6D8FD7581070200BFDD
:10004500EF24FB601314601914601F24037023E56B
:10005500A0541F4480F5A022E5A0541F44A0F5A09C
:1000650022E5A0541F44C0F5A022E5A0541F44E09A
:03007500F5A022D1
:0D007800F5807F607EEA1200857F607EEAE1
:10008500EF1FAC0670011E4C70F6EF1FAC06700139
:050095001E4C70F62274
:10009A00E4FBFAE41200787580FF12007A0BBB00C9
:0800AA00010AEB64034A70EB4C
:0100B200222B
:1000030012009AE4FBFAAF03A80774FE088002C348
:1000130033D8FC1200780BBB00010AEB64084A706A
:10002300E5E4FAFBAF03A8077401088002C333D8E1
:10003300FC428012007A0BBB00010AEB64084A7091
:01004300E3D9
:010044002299
:0A00BF007F0412004512000380FBCD
:00000001FF
